:100000000C94DE020C9406030C9406030C94060375
:100010000C9406030C9406030C9406030C9406033C
:100020000C9406030C9406030C9406030C9406032C
:100030000C9406030C9406030C9406030C9406031C
:100040000C94320F0C9406030C947D110C94AF1198
:100050000C9406030C9406030C9406030C940603FC
:100060000C9406030C94060300000000003E5B4F56
:100070005B3E3E6B4F6B3E1C3E7C3E1C183C7E3C08
:10008000181C577D571C1C5E7F5E1C00183C180016
:10009000FFE7C3E7FF0018241800FFE7DBE7FF30A6
:1000A000483A060E2629792926407F050507407F14
:1000B00005253F5A3CE73C5A7F3E1C1C08081C1C87
:1000C0003E7F14227F22145F5F005F5F06097F017D
:1000D0007F006689956A606060606094A2FFA29468
:1000E00008047E040810207E201008082A1C080836
:1000F0001C2A08081E101010100C1E0C1E0C303884
:100100003E3830060E3E0E06000000000000005F84
:1001100000000007000700147F147F14242A7F2AA0
:100120001223130864623649562050000807030062
:10013000001C2241000041221C002A1C7F1C2A08AE
:10014000083E080800807030000808080808000011
:1001500060600020100804023E5149453E00427F85
:10016000400072494949462141494D331814127FD4
:100170001027454545393C4A494931412111090774
:100180003649494936464949291E000014000000F5
:1001900040340000000814224114141414140041C7
:1001A00022140802015909063E415D594E7C121184
:1001B000127C7F494949363E414141227F414141BC
:1001C0003E7F494949417F090909013E4141517337
:1001D0007F0808087F00417F41002040413F017FA8
:1001E000081422417F404040407F021C027F7F0470
:1001F00008107F3E4141413E7F090909063E4151B9
:10020000215E7F09192946264949493203017F01A8
:10021000033F4040403F1F2040201F3F4038403FA9
:10022000631408146303047804036159494D4300BF
:100230007F4141410204081020004141417F0402F6
:10024000010204404040404000030708002054548D
:1002500078407F284444383844444428384444286B
:100260007F385454541800087E090218A4A49C78BE
:100270007F0804047800447D40002040403D007F1A
:100280001028440000417F40007C047804787C08FA
:100290000404783844444438FC18242418182424CE
:1002A00018FC7C08040408485454542404043F44B3
:1002B000243C4040207C1C2040201C3C4030403CE2
:1002C00044281028444C9090907C4464544C440042
:1002D00008364100000077000000413608000201A6
:1002E0000204023C2623263C1EA1A161123A404092
:1002F000207A38545455592155557941225454780F
:1003000042215554784020545579400C1E527212A7
:100310003955555559395454545939555454580030
:1003200000457C410002457D420001457C407D1234
:1003300011127DF0282528F07C5455450020545496
:100340007C547C0A097F4932494949323A44444441
:100350003A324A4848303A4141217A3A424020787C
:10036000009DA0A07D3D4242423D3D4040403D3C7D
:1003700024FF2424487E4943662B2FFC2F2BFF09A2
:1003800029F620C0887E0903205454794100004496
:100390007D413048484A32384040227A007A0A0A81
:1003A000727D0D19317D2629292F282629292926F4
:1003B00030484D4020380808080808080808382F39
:1003C00010C8ACBA2F102834FA00007B00000814C3
:1003D0002A142222142A14085500550055AA55AA99
:1003E00055AAFF55FF55FF000000FF00101010FF39
:1003F00000141414FF001010FF00FF1010F010F094
:10040000141414FC001414F700FF0000FF00FF1484
:1004100014F404FC141417101F10101F101F1414D0
:10042000141F00101010F0000000001F101010101A
:100430001F10101010F010000000FF10101010100E
:1004400010101010FF10000000FF140000FF00FF4C
:1004500000001F10170000FC04F4141417101714E8
:1004600014F404F40000FF00F7141414141414140A
:10047000F700F7141414171410101F101F1414147D
:10048000F4141010F010F000001F101F0000001FE7
:1004900014000000FC140000F010F01010FF10FF1A
:1004A000141414FF141010101F00000000F010FFAF
:1004B000FFFFFFFFF0F0F0F0F0FFFFFF0000000093
:1004C00000FFFF0F0F0F0F0F3844443844FC4A4A17
:1004D0004A347E02020606027E027E0263554941CC
:1004E000633844443C04407E201E2006027E020203
:1004F00099A5E7A5991C2A492A1C4C7201724C3017
:100500004A4D4D303048784830BC625A463D3E49ED
:100510004949007E0101017E2A2A2A2A2A44445F91
:10052000444440514A444040444A51400000FF0185
:1005300003E080FF000008086B6B08361236243693
:10054000060F090F060000181800000010100030F8
:1005500040FF0101001F01011E00191D1712003C80
:100560003C3C3C00000000000000000800020100CC
:10057000000304070000000000000000010204085E
:1005800010204080010204081020010204081020FD
:100590000404040404040404020202020202030329
:1005A0000303030300000000250028002B000000C7
:1005B0000000240027002A004203DF1111241FBE7F
:1005C000CFEFD8E0DEBFCDBF12E0A0E0B1E0EAE3BC
:1005D000F6E202C005900D92A039B107D9F723E0E9
:1005E000A0E9B2E001C01D92A836B207E1F715E01C
:1005F000CCEBD5E004C02297FE010E941213C83B49
:10060000D107C9F70E94D2120C941B130C9400005E
:1006100084E992E00C94880D809190028F5F809322
:1006200090028A3070F16AE00E94E212282F8091D5
:100630009102820F80939102909390028C3350F03C
:100640006CE30E94E21220919202280F2093920202
:1006500090939102809192028C3350F06CE30E944F
:10066000E21220919302280F20939302909392021A
:1006700080919302883128F068E10E94E212909301
:100680009302089529E048E06AE084E992E00C943E
:10069000B20EEF92FF920F931F93CF93DF9328E157
:1006A00048E068E084E992E00E94670D8C0127E150
:1006B00030E047E150E060E270E087EA92E00E94BB
:1006C0006907C0919302D0E0CD30D1050CF02C9792
:1006D00080919102823088F4E12CF12C02E010E04C
:1006E0002EE130E047E150E060E270E084E992E022
:1006F0000E946B0B2CE130E028C090E00297880F3D
:10070000991FFC01E65FFE4F00811181FC01EE574D
:10071000FE4F20813181E12CF12C47E150E060E275
:1007200070E084E992E00E946B0B8091910290E06E
:100730000197880F991FFC01E65FFE4F0081118130
:10074000FC01EE57FE4F2081318147E150E060E22D
:1007500070E084E992E00E946B0B8091910290E03E
:10076000880F991FFC01E65FFE4F00811181FC019B
:10077000EE57FE4F20813181E12C48EFF42E47E106
:1007800050E060E270E084E992E00E946B0B80919F
:10079000920290E0880F991FFC01E65FFE4F0081F6
:1007A0001181FC01EE57FE4F20813181EE24EA9445
:1007B00067E0F62E47E150E060E270E084E992E005
:1007C0000E946B0BCC0FDD1FFE01E650FE4F008137
:1007D0001181CC5EDD4F28813981E0EEEE2EFF24C1
:1007E000FA9447E150E060E270E084E992E00E9410
:1007F0006B0BCAEFD1E004E112E049915991F80185
:10080000619171918F012FE138EF84E992E00E94AC
:10081000BF0CF2E0C231DF0781F72FEF3FEF43E07B
:1008200050E06EE170E084E992E00E94BF0C2FEF8F
:100830003FEF44E050E06EE170E084E992E00E9416
:10084000BF0C2FEF3FEF45E050E06EE170E084E930
:1008500092E00E94BF0C2FEF3FEF46E050E06EE1C8
:1008600070E084E992E00E94BF0C2FEF3FEF43E07D
:1008700050E060E270E084E992E00E94BF0C2FEF4C
:100880003FEF43E050E061E270E084E992E00E94D3
:10089000BF0C2FEF3FEF44E050E061E270E084E9ED
:1008A00092E00E94BF0C2FEF3FEF45E050E060E286
:1008B00070E084E992E00E94BF0C2FEF3FEF46E02A
:1008C00050E061E270E084E992E00E94BF0C2FEFFB
:1008D0003FEF46E050E062E270E084E992E00E947F
:1008E000BF0C2FEF3FEF45E150E061E370E084E99A
:1008F00092E00E94BF0C2FEF3FEF45E150E062E332
:1009000070E084E992E00E94BF0C2FEF3FEF46E1D8
:1009100050E062E370E084E992E00E94BF0C2FEFA8
:100920003FEF47E150E061E370E084E992E00E942C
:10093000BF0C2FEF3FEF48E150E062E370E084E945
:1009400092E00E94BF0C2FEF3FEF49E150E061E3DE
:1009500070E084E992E00E94BF0C2FEF3FEF49E185
:1009600050E062E370E084E992E00E94BF0C2FEF58
:100970003FEF49E250E060E270E084E992E00E94DB
:10098000BF0C2FEF3FEF4AE250E06FE170E084E9E7
:1009900092E00E94BF0C2FEF3FEF4BE250E06EE180
:1009A00070E084E992E00E94BF0C2FEF3FEF4BE232
:1009B00050E06FE170E084E992E00E94BF0C2FEFFD
:1009C0003FEF4CE250E06EE170E084E992E00E947B
:1009D000BF0C2FEF3FEF4CE250E06FE170E084E995
:1009E00092E00E94BF0C2FEF3FEF4CE250E060E23C
:1009F00070E084E992E00E94BF0C2FEF3FEF4DE2E0
:100A000050E06FE170E084E992E00E94BF0C2FEFAC
:100A10003FEF45E150E06EE070E084E992E00E9433
:100A2000BF0C2FEF3FEF46E150E06DE070E084E94E
:100A300092E00E94BF0C2FEF3FEF46E150E06FE0E5
:100A400070E084E992E00E94BF0C2FEF3FEF47E196
:100A500050E06EE070E084E992E00E94BF0C2FEF5E
:100A60003FEF47E150E06FE070E084E992E00E94E0
:100A7000BF0C2FEF3FEF48E150E06EE070E084E9FB
:100A800092E00E94BF0C2FEF3FEF49E150E06DE094
:100A900070E084E992E00E94BF0C46E350E060E021
:100AA00070E087EA92E00E94FF0A40E050E060EECA
:100AB0007FEF87EA92E00E94050B4AE050E06091E8
:100AC000930287EA92E00E94C81266E071E087EA2A
:100AD00092E00E94601240E050E06FEF77E087EA1A
:100AE00092E00E94050B809192028A3030F468E017
:100AF00071E087EA92E00E9460124AE050E0609163
:100B0000920287EA92E00E94C81266E071E087EAEA
:100B100092E00E94601240E050E060E078EF87EAE7
:100B200092E00E94050B809191028A3030F468E0D7
:100B300071E087EA92E00E9460124AE050E0609122
:100B4000910287EA92E0DF91CF911F910F91FF9080
:100B5000EF900C94C8126AE570E080E090E00E948B
:100B60009F0F0E9449030C940C038BEC92E00E94AF
:100B70009A10892B29F08BEC92E00E94B310F5CFEC
:100B800008952F923F924F925F926F927F928F9231
:100B90009F92AF92BF92CF92DF92EF92FF920F930C
:100BA0001F93CF93DF9300D000D0CDB7DEB74C01B9
:100BB0007C836B836A015901C8018701AC014C1920
:100BC0005D0957FF03C051954195510995016B810E
:100BD0007C81261B370B37FF03C0319521953109E6
:100BE00022242394312C2417350714F0212C312C86
:100BF0002114310459F03A2D2B2D5C01832F922FB3
:100C00003B812C81DC82CB82C32ED22EAB81BC8176
:100C1000AA16BB065CF43C2D2D2D6C01832F922F60
:100C20003B812C81BC82AB82A32EB22E2501EB81AD
:100C3000FC814E1A5F0A3C016C187D0877FE03C0E8
:100C4000719461947108720157FE03C0FFEFEF1AAF
:100C5000FF0AF594E794C816D9062CF421E030E099
:100C60003A83298324C06FEF7FEF7A8369831FC0A3
:100C7000D401ED91FC910480F581E02D98012114BF
:100C80003104D9F04B815C81B601C4010995E618A5
:100C9000F708F7FE06C0E981FA81CE0EDF1EE40CEC
:100CA000F51C2B813C812F5F3F4F3C832B836B8155
:100CB0007C81A616B706E4F604C0A6016B817C8190
:100CC000E4CF0F900F900F900F90DF91CF911F9175
:100CD0000F91FF90EF90DF90CF90BF90AF909F90DB
:100CE0008F907F906F905F904F903F902F900895DE
:100CF0006F927F928F929F92AF92BF92CF92DF922C
:100D0000EF92FF920F931F93CF93DF93EC015B0160
:100D10006A0139014801E881F9810284F385E02DF7
:100D200087010995E881F981A601480D591D4150B7
:100D300051090284F385E02D9301B501CE01099597
:100D4000E881F9810084F185E02D9401A601B501C7
:100D5000CE010995E881F981B501660D771D6150D5
:100D600071090084F185E02D9401A601CE01099559
:100D7000DF91CF911F910F91FF90EF90DF90CF9077
:100D8000BF90AF909F908F907F906F900895EF925B
:100D9000FF920F931F93DC01ED91FC91240F351FFF
:100DA000215031090680F781E02D780189019B01EE
:100DB00009951F910F91FF90EF900895EF92FF9288
:100DC0000F931F93DC01ED91FC91260F371F2150EB
:100DD00031090680F781E02D78018A0109951F917C
:100DE0000F91FF90EF9008956F927F928F929F9254
:100DF000AF92BF92CF92DF92EF92FF920F931F9329
:100E0000CF93DF935C014A0169013801EB01C60E03
:100E1000D71ECC15DD0574F4D501ED91FC9100844D
:100E2000F185E02D87019301A401BE01C50109955B
:100E30002196EFCFDF91CF911F910F91FF90EF900F
:100E4000DF90CF90BF90AF909F908F907F906F90EA
:100E50000895EF92FF920F931F93DC01ED91FC91A7
:100E600011971A960D911C911B9718962D913C91F4
:100E700019970684F785E02D7B0140E050E060E0A3
:100E800070E009951F910F91FF90EF9008950895DC
:100E9000FC011382128282E392E091838083758346
:100EA0006483578346837187608753874287158A97
:100EB000158614861786168621E0248B8FEF9FEF08
:100EC000938B828B918B808B268B178A118E108E41
:100ED00008952F923F924F925F926F927F928F92DE
:100EE0009F92AF92BF92CF92DF92EF92FF920F93B9
:100EF0001F93CF93DF9300D000D000D0CDB7DEB7E3
:100F00009E838D836B015A01790166246394712C51
:100F1000621A730A44245524421A530A440C551C7D
:100F2000DC01ED91FC91420F531F0480F581E02D0F
:100F300098010995AD81BE81ED91FC911197A501B4
:100F40004E195F090480F581E02D9801B601CD01AD
:100F50000995AD81BE81ED91FC911197B6016E0DA1
:100F60007F1D0480F581E02D9801A501CD01099533
:100F7000AD81BE81ED91FC911197B6016E197F098B
:100F80000480F581E02D9801A501CD010995812C02
:100F9000912C8E149F040CF0A1C077FC08C0B1E026
:100FA000EB1AF108E2E04E0E511C640C751CFFEFC9
:100FB0008F1A9F0AC401880F991F0196680E791E27
:100FC000C4018C0D9D1D9C838B83AD81BE81ED91F1
:100FD000FC9111970480F581E02D980115012E0CEC
:100FE0003F1CA101BC01CD010995F601E819F909E1
:100FF000FA83E983AD81BE81ED91FC911197048064
:10100000F581E02D9801A10169817A81CD010995D1
:10101000AD81BE81ED91FC9111970480F581E02DA9
:10102000980115012E183F08A1016B817C81CD012B
:101030000995AD81BE81ED91FC9111970480F581F8
:10104000E02D9801A10169817A81CD0109951401F2
:101050002A0C3B1CAD81BE81ED91FC91119704805F
:10106000F581E02D9801A101C6018E0D9F1D9C8385
:101070008B83BC01CD010995AD81BE81ED91FC91C1
:1010800011970480F581E02D9801A101C6018E1908
:101090009F099A838983BC01CD0109951501281800
:1010A0003908AD81BE81ED91FC9111970480F581E5
:1010B000E02D9801A1016B817C81CD010995AD8165
:1010C000BE81ED91FC9111970480F581E02D98018E
:1010D000A10169817A81CD0109955BCF26960FB672
:1010E000F894DEBF0FBECDBFDF91CF911F910F915E
:1010F000FF90EF90DF90CF90BF90AF909F908F9038
:101100007F906F905F904F903F902F9008952F9217
:101110003F924F925F926F927F928F929F92AF9287
:10112000BF92CF92DF92EF92FF920F931F93CF93D4
:10113000DF93CDB7DEB76A970FB6F894DEBF0FBE68
:10114000CDBF1C0158874F831C870B87FA86E98621
:10115000CC82DC0158964D915C915997411551050F
:1011600009F0A6C018968D919C9119976817790778
:101170000CF056C11A968D919C911B97EF81F885C2
:10118000E817F9070CF04CC1D12CCB013C81F6E0FB
:101190003F9F800D911D1124181619060CF040C1B7
:1011A000C60103E0880F991F0A95E1F74F81588522
:1011B000840F951F181619060CF032C157968C91A2
:1011C000811103C0203B08F02F5F7E876D874B01A4
:1011D000198218E6A12E10E0B12EA61AB70A55E022
:1011E000259FA00CB11C11248981853039F0ED8533
:1011F000FE85EA0DFB1D94919A8301C01A826F80CF
:1012000078842301A8E0AD83BA81B0FF12C0D10178
:10121000ED91FC91BC81B13031F40480F581E02D79
:101220002B853C8518C00684F785E02DEB84FC8473
:101230001DC0E985FA852B853C85E217F307E1F0AF
:10124000D101ED91FC91BC81B13059F40480F5815C
:10125000E02D29853A85A2016D857E85C10109951C
:101260000BC00684F785E02DE984FA848601960197
:10127000A301B401C1010995EA81E695EA83FD81E4
:10128000F150FD836C0C7D1C2FEF421A520AF111B4
:10129000BBCF39813F5F39838C0C9D1C4D855E85AA
:1012A0004F5F5F4F5E874D87363009F09DCFB8C0E6
:1012B000FA0134963491329785919491231BA7E0DB
:1012C0002A9F800D911D1124FA0125913491398BAB
:1012D000288BFC01459154915A8F498FFC0132961D
:1012E000549159873196A491AF873196E491FC01CE
:1012F0003596249131968491BC81B23050F0622EA3
:10130000772467FC7094E82FFF27E7FDF095FE87B0
:10131000ED87FC81CF2ED12C6C9C40016D9C900CF4
:101320007C9C900C1124860E971EA12C1982DE8ABB
:10133000CD8AAB01420F511D27FD5A955E834D8327
:10134000AF81B885A80FB11D87FDBA95B88FAF8B57
:1013500059818F85581708F063C0852F90E02D853F
:101360003E85280F391F2C9DD0012D9DB00D3C9D31
:10137000B00D1124EF81F885EA0FFB1FFB83EA8390
:101380006D807E802401FA2D2D81F21BFA8B4F890E
:10139000588D480F591F5C8B4B8B9A89960D862D63
:1013A0002D81821B39858317B0F5977061F4898D83
:1013B0009A8D0196E889F989298D3A8DE20FF31FFC
:1013C000B4909A8F898FB7FE1DC0D101ED91FC9129
:1013D000BC81B13059F40480F581E02D2B853C852A
:1013E0004B895C89B301C10109950CC00684F7855E
:1013F000E02DEB84FC84860196014A815B81B20179
:10140000C1010995BB0CED89FE894E0E5F1EFFEFF1
:101410006F1A7F0AC2CFA30E49814F5F498398CFCD
:101420006A960FB6F894DEBF0FBECDBFDF91CF91A5
:101430001F910F91FF90EF90DF90CF90BF90AF90F2
:101440009F908F907F906F905F904F903F902F90E4
:101450000895AF92BF92CF92EF92FF920F931F9396
:10146000CF93DF93EC01262F888D998D009709F09B
:1014700042C06A3069F42C898E859F8538E0239FAD
:10148000800D911D11249F878E871D861C86ABC001
:101490006D3009F4A8C08E898823C1F03C898C8501
:1014A0009D8546E0349F800D911D11244885598506
:1014B000841795075CF01D861C868E859F85E8E065
:1014C0003E9F800D911D11249F878E87EA88FB889F
:1014D000088919894E855F856C857D85CC88CE010C
:1014E0000E9487082C898C859D85F6E02F9F800DB2
:1014F000911D112441C06A3079F41D861C864C89E7
:10150000FC01369684912E853F85489F200D311D24
:1015100011243F872E8767C06D3009F464C0AC0189
:101520004C5F5F4FFA013491631708F45CC0319649
:10153000E491E61708F457C0FA014491362F341BA2
:10154000FC013296A590B490F7E03F9FA00CB11C2F
:101550001124F5013296A4913196E491AA2311F059
:10156000E1110DC0F5013496A4902C898C859D85E0
:10157000A29E800D911D11249D878C8734C0F5019A
:101580003596E4913E89332309F13C89B0E0AE0FF2
:10159000B11DE7FDBA953A9FA0013B9F500D112464
:1015A0006C857D85460F571F6885798546175707D7
:1015B0006CF01D861C86FC01369684914E855F85F5
:1015C000389F400D511D11245F874E87EA88FB88A4
:1015D000088919894E855F856C857D85CC88CE010B
:1015E0000E948708BFCF81E090E0DF91CF911F91EB
:1015F0000F91FF90EF90CF90BF90AF900895FC01B6
:1016000075876487578746870895FC01718B608BC7
:10161000538B428B0895FC0185890895FC018085D8
:1016200091850895FC01828593850895FC0185814B
:10163000811107C06EBD00000DB407FEFDCF8EB551
:101640000895A585B6858C919289892B8C9387E026
:1016500090E070E0A585B6853C91228920952323F2
:101660002C93A385B48541899B01082E02C0359532
:1016700027950A94E2F73C9120FF03C0342B3C935A
:1016800004C0242F209523232C93A585B6852C9167
:101690003289232B2C930197E8F60895CF93DF939B
:1016A000EC01E985FA85908188898095892380837A
:1016B000EF81F88590818F85809589238083CE0185
:1016C0000E94160BEF81F88580819F85892B80838E
:1016D000DF91CF9108958F929F92AF92BF92CF9258
:1016E000DF92EF92FF920F931F93CF93DF93EC0162
:1016F0005B016A014901E881F98136978081918116
:101700008C0F9D1F0E940B0B823059F1833009F41E
:101710004EC0813009F06DC0AC24BD24CA24DB2446
:101720008026912608251925E881F98136970190B0
:10173000F081E02DEC0FFD1F84819581AC24BD2448
:101740009C012A193B09590131E0A31AB1088026EE
:101750009126AC01481959094A0151E0851A9108AE
:1017600048C0E881F98136970190F081E02DEC0FB7
:10177000FD1F24813581C9018A199B095C0191E013
:10178000A91AB10886819781AC014C195D096A01DB
:1017900051E0C51AD108A901481959094A0151E077
:1017A000851A91089C01201B310B890120C0AC24B3
:1017B000BD24CA24DB24AC24BD2480269126C40188
:1017C0008027912788269926E881F981369701900C
:1017D000F081E02DEC0FFD1F06811781A8014C1947
:1017E0005D096A0151E0C51AD108081B190B0150A7
:1017F000110980E4C816D10424F0003411050CF05E
:101800005FC090E6A916B10444F020E68216910468
:101810000CF056C09FE5A92EB12C61E2CE010E94CA
:101820004E0B6A2DCE010E944E0BB601603471053D
:1018300014F06FE370E0CE010E944E0BB4016036ED
:10184000710514F06FE570E0CE010E944E0BB801F7
:101850000034110514F06FE370E0CE010E944E0BCE
:1018600061E070E080E090E00E949F0F6F2D669530
:1018700066956695660FCE010E944E0BB70185E016
:10188000769567958A95E1F76F73CE010E944E0BAE
:101890006E2D660F6F73CE010E944E0B61E070E0FB
:1018A00080E090E0DF91CF911F910F91FF90EF903A
:1018B000DF90CF90BF90AF909F908F900C949F0F30
:1018C000DF91CF911F910F91FF90EF90DF90CF901C
:1018D000BF90AF909F908F900895EF92FF920F93DB
:1018E0001F93CF93DF93EC018B017A01E881F9819B
:1018F00036970190F081E02DE80FF91F84819581E2
:1019000068177907ACF5868197814817590784F5E0
:1019100065E1CE010E944E0B602FCE010E944E0B5E
:10192000E881F98136970190F081E02DEC0FFD1FE1
:1019300064816150CE010E944E0B65E7CE010E948A
:101940004E0B6E2DCE010E944E0BE881F981369729
:101950000190F081E02DEC0FFD1F66816150CE01FA
:10196000DF91CF911F910F91FF90EF900C944E0B50
:10197000DF91CF911F910F91FF90EF900895CF923B
:10198000DF92EF92FF920F931F93CF93DF93EC01BF
:101990007B018A01D22EC32E77FD90C0E881F981A8
:1019A0003697808191818C0F9D1F0E940E0BE81647
:1019B000F9060CF083C017FD81C0E881F9813697E4
:1019C000808191818C0F9D1F0E94120B08171907AF
:1019D0000CF074C0E881F9813697808191818C0F79
:1019E0009D1F0E940B0B8230C1F4E881F98136976C
:1019F0000190F081E02DEC0FFD1F848195819C0109
:101A00002E193F09790131E0E31AF10886819781A7
:101A10009C01201B310B890115C08330B1F5E026F4
:101A2000F126C70180279127E826F926E881F98168
:101A300036970190F081E02DEC0FFD1F0681178194
:101A4000081B190B01501109A801B701CE010E9412
:101A50006D0CE985FA8580819889892B8083EF81D7
:101A6000F88590818F858095892380836C2DCE01A8
:101A70000E94160B6D2DCE010E94160BEF81F8858A
:101A800080819F85892B808319C08130E9F6E0260B
:101A9000F1260E251F25E881F98136970190F08106
:101AA000E02DEC0FFD1FC8018E259F25E480F580F9
:101AB000E81AF90A21E0E21AF108C6CFDF91CF91C6
:101AC0001F910F91FF90EF90DF90CF90089570E0FD
:101AD00033E0759567953A95E1F756E0660F771F05
:101AE0005A95E1F750E05595479555954795642BE4
:101AF000752BF5E0660F771FFA95E1F7822F90E0DE
:101B0000A3E095958795AA95E1F7862B972B0895E5
:101B1000CF93DF93EC0161E08B810E942B108E81CB
:101B2000882309F430C061E00E942B108E8190E080
:101B3000FC01E057FA4FE491F0E0EE0FFF1FEC5587
:101B4000FA4F259134913E872D87FC01E458FA4FD6
:101B500084918A8B61E08D810E942B108D8190E0B1
:101B6000FC01E057FA4FE491F0E0EE0FFF1FEC5557
:101B7000FA4F259134913C872B87FC01E458FA4FAA
:101B80008491898B05C00E94FC0E8CB58C608CBD45
:101B900061E08A810E942B1060E08A810E946410BB
:101BA0008A8190E0FC01E458FA4FE491EF87FC0150
:101BB000E057FA4FE491F0E0EE0FFF1FEC55FA4FBB
:101BC0008591949198878F838B8190E0FC01E458F4
:101BD000FA4FE491E88BFC01E057FA4FE491F0E012
:101BE000EE0FFF1FEC55FA4F859194919A878987E4
:101BF0008C81882309F161E00E942B1061E08C81C7
:101C00000E94641064EF71E080E090E00E949F0FFA
:101C100060E08C810E94641064EF71E080E090E0ED
:101C20000E949F0F61E08C810E94641064EF71E05C
:101C300080E090E00E949F0F6EEACE010E944E0B62
:101C400060EACE010E944E0B62E7CE010E944E0B6D
:101C500061EACE010E944E0B60E0CE010E944E0B65
:101C600062EACE010E944E0B60E0CE010E944E0B54
:101C700064EACE010E944E0B68EACE010E944E0B30
:101C80006FE3CE010E944E0B6DEACE010E944E0B17
:101C90006EE8CE010E944E0B60EBCE010E944E0B0F
:101CA0006BE0CE010E944E0B61EBCE010E944E0B09
:101CB00061E3CE010E944E0B63EBCE010E944E0BFE
:101CC00060EFCE010E944E0B6AE8CE010E944E0BDF
:101CD00064E6CE010E944E0B6BE8CE010E944E0BD3
:101CE00068E7CE010E944E0B6AE8CE010E944E0BBF
:101CF00064E6CE010E944E0B6BEBCE010E944E0BB0
:101D00006AE3CE010E944E0B6EEBCE010E944E0B99
:101D10006EE3CE010E944E0B67E8CE010E944E0B8F
:101D200066E0CE010E944E0B61E8CE010E944E0B90
:101D300061E9CE010E944E0B62E8CE010E944E0B7B
:101D400060E5CE010E944E0B63E8CE010E944E0B6F
:101D50006DE7CE010E944E0B6FEACE01DF91CF916D
:101D60000C944E0BEF92FF920F931F93CF93DF9340
:101D70001F92CDB7DEB77C01062F142F40E450E050
:101D800060E670E0439629830E94480780E592E070
:101D9000F701918380838CE692E0948B838B02839E
:101DA000138315821682298124830F90DF91CF91AE
:101DB0001F910F91FF90EF900895EF92FF920F9374
:101DC0001F93DC01ED91FC913C970190F081E02D97
:101DD0008E0F9F1F0E946B0B1F910F91FF90EF9032
:101DE0000895DC01ED91FC913A970190F081E02D8E
:101DF0008E0F9F1F0C94BF0CCF93CFB7F894809198
:101E0000C102811127C0EAE9F5E08491E6E8F5E036
:101E10009491E82FF0E0EE0FFF1FE255FA4FA591E5
:101E2000B4918C91892321F461E08AE00E946410CE
:101E300061E08AE00E942B108CB580618CBD8CB56E
:101E400080648CBD61E08DE00E942B1061E08BE02E
:101E50000E942B108091C1028F5F8093C102CFBF7F
:101E6000CF9108951F920F920FB60F9211242F93C6
:101E70003F938F939F93AF93BF938091C3029091B1
:101E8000C402A091C502B091C6023091C20226E000
:101E9000230F2D3720F40296A11DB11D05C029E89E
:101EA000230F0396A11DB11D2093C2028093C3028C
:101EB0009093C402A093C502B093C6028091C7025A
:101EC0009091C802A091C902B091CA020196A11DC9
:101ED000B11D8093C7029093C802A093C902B0932A
:101EE000CA02BF91AF919F918F913F912F910F9017
:101EF0000FBE0F901F9018953FB7F8948091C702BE
:101F00009091C802A091C902B091CA0226B5A89BBF
:101F100005C02F3F19F00196A11DB11D3FBF6627D7
:101F2000782F892F9A2F620F711D811D911D43E01B
:101F3000660F771F881F991F4A95D1F70895CF9292
:101F4000DF92EF92FF92CF93DF936B017C010E94AF
:101F50007C0FEB01C114D104E104F10489F00E946B
:101F6000E1120E947C0F6C1B7D0B683E734090F366
:101F700081E0C81AD108E108F108C851DC4FEACF66
:101F8000DF91CF91FF90EF90DF90CF9008957894FC
:101F900084B5826084BD84B5816084BD85B582606E
:101FA00085BD85B5816085BDEEE6F0E0808181600C
:101FB0008083E1E8F0E0108280818260808380810C
:101FC00081608083E0E8F0E0808181608083E1EBE4
:101FD000F0E0808184608083E0EBF0E080818160CC
:101FE0008083EAE7F0E08081846080838081826082
:101FF000808380818E7F808380818068808310923F
:10200000C1000895833081F028F4813099F0823046
:10201000A1F008958730A9F08830B9F08430D1F468
:10202000809180008F7D03C0809180008F778093A6
:102030008000089584B58F7702C084B58F7D84BDFC
:1020400008958091B0008F7703C08091B0008F7D9C
:102050008093B0000895CF93DF9390E0FC01E458A3
:10206000FA4F2491FC01E057FA4F8491882349F1FB
:1020700090E0880F991FFC01E255FA4FA591B491A9
:102080008C559A4FFC01C591D4919FB7611108C03E
:10209000F8948C91209582238C93888182230AC0A6
:1020A000623051F4F8948C91322F309583238C93C5
:1020B0008881822B888304C0F8948C91822B8C9326
:1020C0009FBFDF91CF9108950F931F93CF93DF931D
:1020D0001F92CDB7DEB7282F30E0F901E859FA4F4B
:1020E0008491F901E458FA4F1491F901E057FA4F3D
:1020F00004910023C9F0882321F069830E94021013
:102100006981E02FF0E0EE0FFF1FEC55FA4FA5912B
:10211000B4919FB7F8948C91611103C010958123FD
:1021200001C0812B8C939FBF0F90DF91CF911F91A6
:102130000F910895FC01818D228D90E0805C9F4F6E
:10214000821B91098F7399270895FC01918D828DCF
:10215000981731F0828DE80FF11D858D90E008957C
:102160008FEF9FEF0895FC01918D828D981761F09C
:10217000828DDF01A80FB11D5D968C91928D9F5FBE
:102180009F73928F90E008958FEF9FEF089585EDF4
:1021900091E1892B49F085EB95E0892B29F00E948C
:1021A000D51181110C94B5050895FC01848DDF01D2
:1021B000A80FB11DA35ABF4F2C91848D90E00196BA
:1021C0008F739927848FA689B7892C93A089B189A9
:1021D0008C9180648C93938D848D981306C00288B3
:1021E000F389E02D80818F7D80830895CF93DF93E5
:1021F000EC01888D8823C9F0EA89FB89808185FDFF
:1022000005C0A889B9898C9186FD0FC00FB607FC5F
:10221000F5CF808185FFF2CFA889B9898C9185FFA0
:10222000EDCFCE010E94D510E7CFDF91CF91089579
:10223000CF92DF92FF920F931F93CF93DF931F9262
:10224000CDB7DEB76C0181E0D60158968C935897D4
:102250005B969C915B975C968C915C97981307C0FA
:102260005096ED91FC915197808185FD2EC0F6012D
:10227000038D10E00F5F1F4F0F731127F02EF60133
:10228000848DF81211C00FB607FCF9CFD601509615
:10229000ED91FC915197808185FFF1CFC601698353
:1022A0000E94D5106981EBCF838DE80FF11DE35AB1
:1022B000FF4F6083D6015B960C935B975296ED912E
:1022C000FC915397808180620CC0D6015696ED91A7
:1022D000FC91579760835096ED91FC9151978081C6
:1022E0008064808381E090E00F90DF91CF911F9117
:1022F0000F91FF90DF90CF9008951F920F920FB62D
:102300000F9211242F938F939F93EF93FF93E0915C
:10231000DB02F091DC028081E091E102F091E202C7
:1023200082FD12C090818091E4028F5F8F732091B3
:10233000E502821751F0E091E402F0E0E553FD4F31
:10234000958F8093E40201C08081FF91EF919F916E
:102350008F912F910F900FBE0F901F9018951F9285
:102360000F920FB60F9211242F933F934F935F93C9
:102370006F937F938F939F93AF93BF93EF93FF934D
:102380008BEC92E00E94D510FF91EF91BF91AF913D
:102390009F918F917F916F915F914F913F912F917D
:1023A0000F900FBE0F901F9018958BEC92E00E943B
:1023B0009A1021E0892B09F420E0822F08951092D1
:1023C000CE021092CD0288EE93E0A0E0B0E08093C0
:1023D000CF029093D002A093D102B093D20284E8AE
:1023E00092E09093CC028093CB0285EC90E09093A6
:1023F000D8028093D70284EC90E09093DA02809325
:10240000D90280EC90E09093DC028093DB0281ECB7
:1024100090E09093DE028093DD0282EC90E0909356
:10242000E0028093DF0286EC90E09093E2028093DA
:10243000E1021092E4021092E5021092E60210927C
:10244000E7020895CF92DF92EF92FF920F931F93CE
:10245000CF93DF937C016A01EB0100E010E00C15E3
:102460001D0571F06991D701ED91FC910190F0810A
:10247000E02DC7010995892B19F00F5F1F4FEFCF92
:10248000C801DF91CF911F910F91FF90EF90DF90E6
:10249000CF9008956115710581F0DB010D9000204A
:1024A000E9F7AD0141505109461B570BDC01ED9195
:1024B000FC910280F381E02D099480E090E0089582
:1024C0000C944A128F929F92AF92BF92CF92DF925A
:1024D000EF92FF920F931F93CF93DF93CDB7DEB7A9
:1024E000A1970FB6F894DEBF0FBECDBF7C01C42EFE
:1024F000E52FCB01D22E19A221E02D1510F02AE0F4
:10250000D22E8E010F5D1F4F8D2C912CA12CB12C42
:102510006C2D7E2FA50194010E94EE128C2DD29E6F
:1025200080191124015011098A3014F4805D01C012
:10253000895CF8018083211531054105510521F0A1
:10254000C22EE32FCA01E4CFB801C7010E944A128C
:10255000A1960FB6F894DEBF0FBECDBFDF91CF912D
:102560001F910F91FF90EF90DF90CF90BF90AF90B1
:102570009F908F9008952115310541F4DC01ED9174
:10258000FC910190F081E02D642F09940C9462126B
:102590009A01462F50E060E070E00C94BB120E945C
:1025A000161308950E94C70F0E94D1120E940803BB
:1025B000C7ECD0E10E94AB052097E1F30E94C71061
:1025C000F9CF0895991B79E004C0991F961708F078
:1025D000961B881F7A95C9F780950895A1E21A2E57
:1025E000AA1BBB1BFD010DC0AA1FBB1FEE1FFF1FB7
:1025F000A217B307E407F50720F0A21BB30BE40B07
:10260000F50B661F771F881F991F1A9469F760954D
:102610007095809590959B01AC01BD01CF01089507
:10262000EE0FFF1F0590F491E02D099481E090E0FA
:0A263000F8940C941B13F894FFCFEC
:10263A000000680380003A00300002000200020035
:10264A000300040005000600070009000B000C0047
:10265A000E00110013001500170019001B001D00C1
:10266A0020002200230025002700280029002A0034
:10267A002B002C002C002C002C002C002B002A00F4
:10268A0029002800270025002300210020001D0022
:10269A001B00190017001500130011000E000C0092
:1026AA000B000900070006000500040003000200F1
:1026BA000200200022002400260029002A002C0003
:1026CA002E0030003100320033003400350035006E
:1026DA003500350035003400330032003100300057
:1026EA002E002C002A0029002600240022002000A7
:1026FA001E001C001A00170015001400120010001A
:10270A000F000E000D000C000B000B000B000B005D
:10271A000B000C000D000E000F0010001200140038
:10272A00160017001A001C001E00060008000E0002
:10273A00170020002600280026001F0017000E00A0
:10274A0008000600200028002F0031002F00280072
:10275A002000170011000F001100180020000000CF
:10276A000000290A2212CF12C105C706DE06780622
:10277A00F4062907470750026C0213000000000004
:10278A00BF0C6B0B000000000000000000000000FE
:10279A00EDFFEDFF00000000EDFF0000290A221204
:1027AA00F10EDD0EC706DE067806F406290747078E
:1027BA0000000000181122129A10B310A510F6108A
:00000001FF
